.....................................................................................................................................................................................................................................................................................................................................................................................................................................................................................................................................................................................................
........10........20........30........40........50........60........70........80........90........00........10........20........30........40........50........60........70........80........90........00........10........20........30........40........50........60........70........80........90........00........10........20........30........40........50........60........70........80........90........00........10........20........30........40........50........60........70........80........90........00........10........20........30........40........50........60........70........80.
.................................................................................................100.................................................................................................200.................................................................................................300.................................................................................................400.................................................................................................500.................................................................................582

7659721668    0101000000000000000000000             00  00000         000                        0000000000000000000000000000000000000000000000000000000000000000        000000000000000000000000                                                00000000000000000000000000000000000000000000000000000000000000000000000000000000005900010500000000000000011090                                                                                    001000011090010124010122000000000FW4065  000  000000000000000000000000000000                      O0000000      0   OLD HSE             +000000590
6688964517    0101100084041201196532121             00  00840D-     FR000                        0000000000000000000000000000000000000000000000000000000000000000        000000000000000000000000                                                00000000000000000000000000000000000000000000000000000000000000000000000000000000276900066640000000000000094330                                                                                    00 000094330010131010124005003070E16033  001  000000000000000000000000000000                      D3210040      0   OLD FARM BLDGS      +000000500
6694083206    0101100038411301199813121             00  00384D-     FR000                        0000000000000000000000000000000000000000000000000000000000000000        000000000000000000000000                                                00000000000000000000000000000000000000000000000000000000000000000204000000400000387200037470000000000000076190                                                                                    00 000076190010124010122005002240A15029  001  000000000000000000000000000000                      D2210040      0   OLD DWELLING        +000004000
6695172206    0101000000000000000000000             00  00000         000                        0000000000000000000000000000000000000000000000000000000000000000        000000000000000000000000                                                00000000000000000000000000000000000000000000000000000000000000000000000000000000014000130560000000000000131960DEEDED ACCESS PER LETTER                                                            00 000135960010403010222000012796B15048N 000  000000000000000000000000000000                      O0000000      0   OLD CABIN           +000001400
6695746232    0101000000000000000000000             00  00000         000                        0000000000000000000000000000000000000000000000000000000000000000        000000000000000000000000                                                00000000000000000000000000000000000000000000000000000000000000000000000000000000008000049820000000000000050620                            BARN - MISC.                                            00 000050620000921000726000002378B15015  000  000000000000000000000000000000                      O0000000      0   BARN                +000000800
6695757312    0101100132511201192022121             20  01325D-     UN003RM8AB2                  01010000000000001998195200000000000000000000000000250000000000000X      001040000000000000000000DD      FF                                      09602100000000000000000003370026300000000000000000000000000000000000000000600000097100045810000000000000055520                            RM8 - #7825                                             00 000055520010131010124005001773B1507501001  000000000000000000000000000000                      D3310040      0   3 MISC BLDGS        +000001500
6696683067    0101100159090201197524221             10  01590C+     AV000RS5                     01000000000000001950000000000000000000000000000000000000000000001       120000000000000000000000C       A                                       01500000000000000000000002030000000000000000000000000000000000000102500000453001018600010800000000000000112660                            SHOP - #6142                                            00 000000000010403010308008000282C15035T 001  000000000000000000000000000000                      D3240020      0   SHOP ADDITION       +000000400
6697656329    0101000000000000000000000             00  00000         000                        0000000000000000000000000000000000000000000000000000000000000000        000000000000000000000000                                                00000000000000000000000000000000000000000000000000000000000000000000000000000000000000001000000000240000001000                                                                                    00 000000240000921000822000000040D15067  000  000000000000000000000000000000                      V0000000      01
6697656340    0101000000000000000000000             00  00000         000                        0000000000000000000000000000000000000000000000000000000000000000        000000000000000000000000                                                00000000000000000000000000000000000000000000000000000000000000000000000000000000200000002500000000000000022500                            FARMER OFFICE                                           00 000022500000921000726000000020D15068  000  000000000000000000000000000000                      O0000000      0   OFFICE              +000020000
6697677130    0101000000000000000000000             00  00000         000                        0000000000000000000000000000000000000000000000000000000000000000        000000000000000000000000                                                00000000000000000000000000000000000000000000000000000000000000000000000000000000000000006120000000000000006120                                                                                    00 000006120000726990324000000090D1506302000  000000000000000000000000000000                      V0000000      0
6697677899    0101000000000000000000000             00  00000         000                        0000000000000000000000000000000000000000000000000000000000000000        000000000000000000000000                                                00000000000000000000000000000000000000000000000000000000000000000000000000000000000000000110000000000000000110                                                                                    00 000000110000726940118000000010D15062  000  000000000000000000000000000000                      V0000000      0
6697682482    0101100236970301197834221       00043500  01934B-     AV000                        0000000000000000000000000000000000000000000000000000000000000000        000000000000000000000000                                                00000000000000000000000000000000000000000000000000000000000000000100400000040001247700020620000000000000145390                                                                                    00 000145390010131010124008000628D15038  001  000000000000000000000000000000                      D3240030      04  CANOPY              +000001200
6698266278    0101000000000000000000000             00  00000         000                        0000000000000000000000000000000000000000000000000000000000000000        000000000000000000000000                                                00000000000000000000000000000000000000000000000000000000000000000000000000000000000000010200000000000000010200                                                                                    001000000000010326010124000000102O45015B 000PP060616082000200000000000000000MISWMH     CK#4180    V0000000      0119
6699576506    0101100044011307199521121             10  00352D      FR050RM8RG1                  01010000000000001997199800000000000000000000000000360000000000000X      001040000000000000000000CC      AA                                      09509000000000000000000004280193700000000000000000000000000000000000000002365000449000189210000000000000234110RG1 MSMTS/INFO PER OWNER    HOUSE WAS RELOCATED FROM    ACROSS RD                   001000234110010131010124005009784G150122 001  000000000000000000000000000000                      D3660042      09  WOOD SHED           +000000200
6780767675    0101100101411207193612121             10  00934D-     FR000RM8                     01000000000000001993000000000000000000000000000000000000000000000       001000000000000000000000C       A                                       09100000000000000000000004100000000000000000000000000000000000000000000000410000305500037490000000000000068040DWBO                                                                                00 000068040010131010124005001395G16017  001  000000000000000000000000000000                      D2210040      0   FARM BLDGS          +000001000
6780899150    0101100104021207194012121             10  00624E      PR000                        0000000000000000000000000000000000000000000000000000000000000000        000000000000000000000000                                                00000000000000000000000000000000000000000000000000000000000000000201400000140000145800020730000000000000035310                                                                                    00 000035310010131010124005000633G16024  001  000000000000000000000000000000                      D2210030      0   CANOPY              +000000300
6781916769    0101100078411201195522121             10  00784D-     PR000AB2AP5AP3AP2AP3AP2RM8RM8010101010101030119551965196519601960196019931997000000000000000022303100500800500900000200001001DDDDDDCCFFPPFFAA                                02201000500501001009109505730009500071000340012500080012290042800000000002635000457000192050000056270000237750                                                                                    004000110970010329010329005011140H16001B 001  000000000000000000000000000000                      D3210030      0   AP4                 +000000100
6781949248    0101000000000000000000000             00  00000         000                        0000000000000000000000000000000000000000000000000000000000000000        000000000000000000000000                                                00000000000000000000000000000000000000000000000000000000000000000000000000000000000000052000000000000000052000                                                                                    00 000052000000726940315000002700H16031  000  000000000000000000000000000000                      V0000000      0
6781958251    0101100108011201194512001             00  01080D-     PR000                        0000000000000000000000000000000000000000000000000000000000000000        000000000000000000000000                                                00000000000000000000000000000000000000000000000000000000000000000000000000000000175600084530000000000000102090                            GATE LOCKED EST                                         00 000102090010131010124000004556H16030  001PA100216191997199900000000000000RDADDITION CKBK42000  D2210050      0
6782607376    0101100183090201195623121             10  01830C      FR000RS5                     01000000000000001970000000000000000000000000000000000000000000002       100000000000000000000000D       F                                       01000000000000000000000001980000000000000000000000000000000000000200700000268000711400044400000000000000115540                                                                                    00 000115540010131010124005001920I16020N 001  000000000000000000000000000000                      D3210020      0   RX1                 +000002500
6783701392    0101000000000000000000000             00  00000         000                        0000000000000000000000000000000000000000000000000000000000000000        000000000000000000000000                                                00000000000000000000000000000000000000000000000000000000000000000000000000000000004000014830000000000000015230                                                                                    001000015230010124010122000000000J16051  000  000000000000000000000000000000                      O0000000      07  DECK                +000000400
6783703335    0101100162040501199324221             00  01620D-     FR000                        0000000000000000000000000000000000000000000000000000000000000000        000000000000000000000000                                                00000000000000000000000000000000000000000000000000000000000000000000000000000000609200014460000000000000075380                                                                                    00 000075380010131010124008000000J16052  001  000000000000000000000000000000                      D3240040      0   DECK                +000000300
6783802921    0101100149010501198624221             00  01490E+     FR000                        0000000000000000000000000000000000000000000000000000000000000000        000000000000000000000000                                                00000000000000000000000000000000000000000000000000000000000000000000000000000000475200015200000000000000062720YEAR BUILT EST.             DW PERS PROP                                            00 000062720010131010124008000000J16021  001  000000000000000000000000000000                      D3240040      1   DECK                +000000200
6786933389    0101100123370201198124121             00  01080C-     AV000RS1RS1                  0101000000000000199619960000000000000000000000001210000000000000XX      016012000000000000000000DD      FF                                      06306300000000000000000001050007600000000000000000000000000000000000000000181000685700012510000000000000081080                                                                                    00 000081080010131010124107000000M16051  001  000000000000000000000000000000                      D3240030      0   GREENHOUSE          +000000200
6787975217    0101000000000000000000000             00  00000         000                        0000000000000000000000000000000000000000000000000000000000000000        000000000000000000000000                                                000000000000000000000000000000000000000000000000000000000000000000000000000000000400000400000000000000000440008538'LOT                                                                            00 000044000010312010312000000000N1602835001  000000000000000000000000000000                      O0000000      0   CONSTRUCTION        +000004000
6787975295    0101000000000000000000000             00  00000         000                        0000000000000000000000000000000000000000000000000000000000000000        000000000000000000000000                                                000000000000000000000000000000000000000000000000000000000000000000000000000000000400000400000000000000000440009686'LOT                                                                            00 000044000010312010312000000000N1602836001  000000000000000000000000000000                      O0000000      0   CONSTRUCTION        +000004000
6787976275    0101000000000000000000000             00  00000         000                        0000000000000000000000000000000000000000000000000000000000000000        000000000000000000000000                                                000000000000000000000000000000000000000000000000000000000000000000000000000000000400000400000000000000000440008182'LOT                                                                            00 000044000010312010124000000000N1602837001  000000000000000000000000000000                      O0000000      0   CONSTRUCTION        +000004000
6790240454    0101000000000000000000000             00  00000         000                        0000000000000000000000000000000000000000000000000000000000000000        000000000000000000000000                                                0000000000000000000000000000000000000000000000000000000000000000010090000009000003900003723000000000000004113060' AREA = 216857'                                                                  00 000041130010124010122000001799G1502901000  000000000000000000000000000000                      O0000000      01  CABIN               +000003000
6790518356    0101100112041101199824221             00  01120D+     FR000                        0000000000000000000000000000000000000000000000000000000000000000        000000000000000000000000                                                00000000000000000000000000000000000000000000000000000000000000000000000000000000602700010200000000000000070470LIMITED RD FRT                                                                      00 000070470010131010124008000244G150392A001  000000000000000000000000000000                      D3240040      0 2
6790520489    0101000000000000000000000             00  00000         000                        0000000000000000000000000000000000000000000000000000000000000000        000000000000000000000000                                                00000000000000000000000000000000000000000000000000000000000000000000000000000000000000346200000000000000346200OLD HOUSE NV                                                                        00 000346200000726990323000018994G1503903000  000000000000000000000000000000                      V0000000      0
6790548528    0101200154010607190012121             10  00560C      AV000RG1                     01000000000000001986000000000000000000000000000000000000000000000       800000000000000000000000C       F                                       06500000000000000000000008700000000000000000000000000000000000000100400000910000606700115320000000000000175990                                                                                    00 000175990010131010124005005261G15041  001  000000000000000000000000000000                      D2210030      0   MISC. BLDG.         +000003500
6790552492    0101000000000000000000000             00  00000         000                        0000000000000000000000000000000000000000000000000000000000000000        000000000000000000000000                                                00000000000000000000000000000000000000000000000000000000000000000000000000000000000000001140000000000000001140                            OWNS FRONTAGE - #6790548528                             00 000001140000921000731000000065G15042N 000  000000000000000000000000000000                      V0000000      0
6790560747    0101100194811201199624243             00  01282C+     AV000                        0000000000000000000000000000000000000000000000000000000000000000        000000000000000000000000                                                00000000000000000000000000000000000000000000000000000000000000000000000000000001435800040730000000000000184310                                                                                    00 000000000010326010131112002597G15054  001  000000000000000000000000000000                      D3110030      111 SHOP                +000004000
6790577103    0101150186491201199334221             12  01008C+     AV000                        0000000000000000000000000000000000000000000000000000000000000000        000000000000000000000000                                                00000000000000000000000000000000000000000000000000000000000000000000000000000001257800038770000000000000164550                                                                                    00 000164550010131010124110002176G150541 001  000000000000000000000000000000                      D3240032      066
6790580124    0101000000000000000000000             00  00000         000                        0000000000000000000000000000000000000000000000000000000000000000        000000000000000000000000                                                000000000000000000000000000000000000000000000000000000000000000000000000000000000000000000000000000000000000001.75AC USED FOR PVT RD                                                              00 000000000010326000928000000175G150541 000  000000000000000000000000000000                      V0000000      0
6790582201    0101000000000000000000000             00  00000         000                        0000000000000000000000000000000000000000000000000000000000000000        000000000000000000000000                                                00000000000000000000000000000000000000000000000000000000000000000000000000000000000000012610000000000000012610                                                                                    00 000012610010309000928000000364G15052D 000  000000000000000000000000000000                      V0000000      0
6790582935    0101100115240201197123121             10  01152D      AV000                        0000000000000000000000000000000000000000000000000000000000000000        000000000000000000000000                                                00000000000000000000000000000000000000000000000000000000000000000301200000120000469100008910000000000000055820                                                                                    00 000055820010131010124005000099G15072  001  000000000000000000000000000000                      D3210030      0   GAZEBO              +000001200
6792726562    0102100121411207186012121             00  01214E+     FR000AB2AP2AP2AH1            0101010300000000196519701970199000000000000000000000005000000000121X    800000200400000000000000DDDC    FFFA                                    02901001004700000000000005770011300080090790000000000000000000000000000009849002872600158780000029800000285030ACCESS PER ORTHO PHOTO                                                              00 000000000010405010326005011800I15099N 001  000000000000000000000000000000                      D2210040      0   CABIN/OFF./2 OLD DWL+000007300
6793118557    0102100223690201197324221             10  02236B-     GD000RG2AB2AP4               0101010000000000197519551992000000000000000000000000000000000000011     660200200000000000000000CCC     AAA                                     05902705400000000000000007610049900484000000000000000000000000000000000001744002220700056470000000000000219560                                                                                    00 000278540010124010122008001349J15011  001  000000000000000000000000000000                      D3210020      0   GAZEBO              +000002600


.....................................................................................................................................................................................................................................................................................................................................................................................................................................................................................................................................................................................................
........10........20........30........40........50........60........70........80........90........00........10........20........30........40........50........60........70........80........90........00........10........20........30........40........50........60........70........80........90........00........10........20........30........40........50........60........70........80........90........00........10........20........30........40........50........60........70........80........90........00........10........20........30........40........50........60........70........80.
.................................................................................................100.................................................................................................200.................................................................................................300.................................................................................................400.................................................................................................500.................................................................................582
.